:10000E000D040D041404140416041604140812042A
:10001E001204110411040F040F040D081404140427
:10002E0012041204110411040F081404140412040F
:10003E001204110411040F080D040D041404140409
:10004E0016041604140812041204110411040F04E9
:10005E000F040D08FF000400040004160218021914
:10006E0006180219041D04180C11021102160614AA
:10007E000216041904140C110412061102120419AA
:10008E0004110800021902190219021806130213AC
:10009E00041804180800041602180219061802198A
:1000AE00041D04180C11021102160614021604196E
:1000BE0004140C0F02110212041902180419061B63
:1000CE00021B021D02190A19021802160216021844
:1000DE00041504160C19021B021D061B021D04201A
:1000EE00041B0C140214021906180219041D041D17
:1000FE001016021802190418041B041B02190A1404
:10010E00061E041D041D0419041D0C1D04220820C6
:10011E000420041D021B021908000219021B0419F7
:10012E00021B021B0420041D0C1D04220820081DA6
:10013E00021B021908000219021B0419021B0618E1
:06014E0004160C0004FF82
:1001E000204A0A0000F88CF8F3F95BF9B8FA15FA1E
:1001F00067FAB9FB04FB4BFB90FBCFFC10FC44FC03
:1002000079FCACFCDCFD09FD34FD5CFD82FDA6FD46
:10021000C8FDE8FE06FE22FE3DFE56FE6EFE85FE91
:0D0220009AFEAEFEC1FED3FEE4FEF4FF0325
:1002A90020B1107F147E0012030D20B10630B1FD7C
:1002B9007F012220B0107F147E0012030D20B006AA
:0902C90030B0FD7F02227F00220B
:10022E008E558F56C28CE4F508E5562508F582E406
:10023E003555F583E493FFB4FF03C28C228F090575
:10024E0008D28CE5562508F582E43555F583E493FE
:10025E0075F07DA4FFAEF012030D0508C28C7F056C
:07026E007E0012030D80C2A7
:0502D2001202F6C28CCF
:1002D7001202A98F54E554B401077E007F0E120263
:0D02E7002EE554B402EA7E007F6312022E61
:0202F40080E1A7
:03000B0002027579
:10027500C0E0C0D075D000C000C006E50925E02467
:100285000AF8E6FE08E64E6012E50925E0240AF8BC
:10029500E6FE08E6F58AEEF58CB2A5D006D000D0CC
:0402A500D0D0E032A3
:10030D00EF1FAC0670011E4C600A7D027CEFDCFE17
:04031D00DDFC80EC97
:0103210022B9
:1002F6005389F0438901758A18758CFCC28DD28C9E
:07030600D2A9D2AFC2B92257
:03000000020154A6
:0C015400787FE4F6D8FD75815602019B0F
:100160000202D2E493A3F8E493A34003F68001F2E1
:1001700008DFF48029E493A3F85407240CC8C333A0
:10018000C4540F4420C8834004F456800146F6DF6F
:10019000E4800B01020408102040809001E0E47E1E
:1001A000019360BCA3FF543F30E509541FFEE49364
:1001B000A360010ECF54C025E060A840B8E493A32B
:1001C000FAE493A3F8E493A3C8C582C8CAC583CA56
:1001D000F0A3C8C582C8CAC583CADFE9DEE780BE0E
:01022D0000D0
:00000001FF
